:020000041000EA
:4000000000400208230100100D00000085010010000000000000000000000000000000000000000000000000000000008101001000000000000000008101001081010010E9
:400040008101001081010010810100108101001081010010810100108101001081010010810100108101001081010010810100108101001081010010810100108101001060
:400080008101001081010010810100108101001081010010810100108101001081010010810100108101001081010010810100108101001081010010810100108101001020
:4000C00010B5064C2378002B07D1054B002B02D0044800E000BF0123237010BD3406000800000000D8210010084B10B5002B03D00749084800E000BF07480368002B00D139
:4001000010BD064B002BFBD09847F9E70000000038060008D8210010E4000008000000007047FFF7FDFF72B60F4C104DAC4209DA21686268A368043B02DBC858D050FAE7BC
:400140000C34F3E70A490B4A0020521A02DD043A8850FCDC084809490860BFF34F8F00F0FFF800F01DF8FEE7DC210010F4210010340600080C0800080000000808ED00E08C
:40018000FEE7FEE700B504207146084202D0EFF3098001E0EFF30880043001F021FCFEE710B562B6014800F061F9FEE70000081010B5002000F0FAFE10BDC04670B55F4912
:4001C000E0239B00CB580F2213401A00D0329200525807210A4002D0042A02D00FE0584811E01A00C0329200544952581F210A40112A06D0132A04D0FA20C00103E05148B6
:4002000001E080200002002B36D14C4BB222D2009A5801211140B125ED005A59120F032422405B591B0F1C4207D0444C63591B0F03242340012B02D102E0012300E000232C
:40024000002B01D0002901D1032A4BD13B4BB022D2009D58AD03AD0B3B495958C904C90C9C58240E01231C40013401F08FFC6843210001F08BFC35E0012B33D12F4BC8229C
:40028000D2009A5801251540C024E4001A59120F03210A401B591B0F194207D027490B591B0F03210B40012B02D102E0012300E00023002B01D0002D01D1032A12D11F4D79
:4002C000C022D200AB587F210B40A958090A1F263140AC58240C3440584301F057FC210001F054FCE0239B00144AD3581B0903221340D840154C2060154B1D692D0AFC32A2
:40030000154001351969090E013101F03FFC6060290001F03BFC0500A060E0600D4BC0180D4901F033FC20740C4BE818FA21890001F02CFC6061C003A06170BD000026407F
:4003400000127A0000366E0184050000C0000008000021403F420F0040420F00E703000010B5284801F00CFC274CB022D200A3585B005B08A350E021890063583020834343
:40038000635080235B04A350204A214BE250A02292010433E250FF221E4BE25000F076FFC0225200A35801218B43A35000F0BEF9FFF704FFB0235B055B78002B04D0B02324
:4003C0005B055B78DBB200E02123212B03D1124B0022DA605A60114C22008021042000F08BFB2000103000F01FFC0D4B1A685123D35C002B02D00B4800F08CFC01F006F82D
:4004000010BDC046202100100000264001000200840500008C050000E00023405006000808080008F41C00108023024AD3580320184070470000214010B501F062FB08492B
:4004400080228C58074B2340074C23438B508823034AD358DB06FAD501F057FB10BDC04600002140FCFF00000100FA0570B50500830504D0E821FF310F4801F083FA01F0F3
:4004800040FB0400FFF7D0FF032801D1FFF7D4FF0A4AB0239B00D55080215058084B03400848034353508823044AD358DB06FAD5200001F02AFB70BD281D00100000214086
:4004C000FCFF00000300FA05FEE7C04630B587B08649A022D2008B58032083438B50844A116808688823CB58C31818688149084018601368186884241B59C01803681B020D
:400500001B0A80256D042B430360106805680359EB1818680140196013683E229A5C002A06D07248E02189004258753CA24342503E229A5C002A06D06C48E021890042582C
:400540003024A24342503E229B5C002B07D06749E02292008B588020000603438B500021012000F03BFD0021022000F037FD0021032000F033FD0021042000F02FFD0021B2
:40058000002000F02BFD01A85B4903000A0032CA32C312CA12C300F04FFD002802D00420FFF792FF5149554A8B588020000603438B50534800F0FCFD002802D00420FFF7AB
:4005C00083FF4A4C4F4BE1584F4A0A40E250E1584E4A0A40E250E25880252D062A43E250043BE1584A4A0A40E250E158494A0A40802189010A43E250E258802109020A4382
:40060000E250454A1168454B0B40802149000B431360002001F07CFA414BE2581543E550E158012291430A43E2506421002001F0EFF92F4B1B683F229A5C032A03D9002175
:40064000384A986881509A6874215B5AD2181168284B0B40F82149010B431360244B1B687322995C703A8A40110070229A5C7220185C82400A43802109060A438021C90091
:40068000986842509A6852583F229A5C052A06D970229A5C01210A402349986842509A6874215B5AD2185168124B0B408C2189010B4353600E4B1A687323D35C0321994039
:4006C0007023D35C7220105C1C0084402143012003400B43802109060B438021C9009068435093685B5807B030BDC0460000264008080008FF00FFFF401D0010087F00008A
:40070000400D030004050000FEFCFFFFFFFF00FFFFF0FFFFFF8FFFFF00002740FFFCFFFF0C0500000C0C0000140C000070B58AB09621002001F06CF901F042F9002814D184
:4007400001F02EF9C0235B00274AD358DB0705D41100264A8B585B005B088B502249234A8B588020000603438B50012001F096F81F4A516C1F4B0B40E82189010B4353643A
:40078000536C1B0AFF2213403A2B07D1184A516C194B0B40E82189010B435364FFF796FE0F22164B1A60164A164B1A6001AD164C2A002300143343CB43C243CB43C243CB95
:4007C00043C22900114800F029FE2A002300383313CB13C213CB13C213CB13C229000C4800F01CFE0AB070BD000026400C05000000002740FF00FFFFFFC5FFDF00006440FB
:400800000701010000026440401D0010800232400003324070B505000C001A4B1B6828229A5C012A15D1820807211000884327D19200AD1AED00FF20A8401B6820339A186A
:400840001168AC4023004B40184004004C40146016E03A229B5EDBB2994203D176210A4801F090F8074B1B681B68072215408022120615438022920194466444A400E550A8
:4008800070BDC046080800089C1D001070B504000D000B4B9A680B4B9A420CD1002904D13821FF31084801F06DF81034054BA400E058E55003E01034A400044BE05870BD36
:4008C00000ED00E0000000089C1D001000000010F0B5474680B482B0061E01914AD04368032B03D93221264801F04CF80023F05E002804DBB178FFF78DFF002400E0214CA3
:400900000023F15E7368002912DB88081E4FC0308000C55903221140C900FC3290468A4095439A01434613408B402B43C35116E089B20F220A40083A920806329200134873
:400940001018476803221140C900FF252A008A4097439A012B0013408B403B4343600B4B9A680B4B9A4206D10023F05E0199FFF78DFF00E0034C200002B004BC9046F0BD38
:400980009C1D00100100560000E100E000ED00E00000000870B504000D000A4B1A68B423D3581B181B68002B0ADA0B0C03D00649064800F0E7FF2D042D0C6560002000E021
:4009C000034870BD08080008D5020000E01D001001008A0070B505000C000368002B01DA002300E0084B002B0BD1EA60230C03D00649074800F0C6FF2404240CAC600020D1
:400A000000E0014870BDC04601008A00BB020000E01D001070B505000C1E03D19921084800F0B0FF074B1A68B423D3585B191B68002B03DAEB682360002000E0024870BD12
:400A4000201E00100808000801008A0070B504000D00234B1A683123D35C834236D9002936D00B68DB0635D13123D35C984204D3C421FF311B4800F085FF194B1B681A6AF4
:400A8000B0215B5A5C431419174E34602B68DA080021686801F006F900212000FFF77AFF3468002D03D111490E4800F06BFF2A0000212000FFF78EFF00280DD10A4B186875
:400AC0000021FFF767FF002808D108E0084806E0074804E0064802E0064800E0054870BD08080008E01D0010E00700089303000003018A0001018A0010B50400002A17D1B0
:400B0000002915D1124B1A683123D35C984204D3C421FF310F4800F035FF0D4B1B681A6AB0215B5A5C4314190B4B1C6000200EE0002A09D0002909D0074B59609A60191D32
:400B40002000FFF783FF02E0044800E0034810BD08080008E01D0010E007000803018A00F0B583B00D001C4B1B68DC68236883422DD947097B01C01A012383401E000029D8
:400B800003D100F0BEFF019001E000230193124B18680368002B01DA002300E00F4B002B0ED16368BF00DF193B68334203D0B3433B60002400E00A4C0021FFF7EBFE00E09E
:400BC000084C002D04D1019800F09FFF00E0064C200003B0F0BDC046E007000801008A00020188000301880004018A000A4B1B68DA68136883420BD943095901401A012140
:400C0000814052689B009B580B4203D0034802E0034800E003487047E00700080101880004018A0000018800034B1B68002B01D1014B18607047C046EC070008F0B5474624
:400C400080B404000F0090461E002D4B1B68002B03D1B5212B4800F095FE294B1B682C2060431C18FF22150035402560330A13406360360CA660244B1A683123D35C9D423B
:400C800004D3C421FF31214800F07CFE1E4B1A68B023D35A6B43116A8C466344236166683223D35C9E4204D3E021FF31174800F069FE154B1B681D6A80367601AD19656151
:400CC000A668330C04D0FF214900104800F05AFE330C03D00E490D4800F054FE3604330C1E43AE604346E36127620023A361069B002B02D000229B5EA38104BC9046F0BD45
:400D0000EC070008601E001008080008E01D0010FF010000F0B58FB0041E03D15221294800F030FE6368032B03D95421254800F029FEE36A002B03D15821224800F022FE1C
:400D4000236B002B03D159211E4800F01BFE07AA1300210061C961C321C921C302AD290023001433C1CBC1C141CB41C10821535E0CAE3380144B1B6836215B5E07998C46F3
:400D80006344B370089B0D930B9B0A980096A26AE16AFFF753FF2B69E868002200920021FFF74CFF216B3000FFF792FD0023F25E002A05DB1F231A401E3B9340034A136069
:400DC0000FB0F0BD601E00100808000800E100E0F8B505000F0016001C00002A03D1FD21224800F0CFFD224B1B68002B03D1FE211E4800F0C7FD1E4B1B682C2128004843D7
:400E0000181879435918012213004D68AB401B044568AA4015000269002A20D08F69002F1FD11268002A01DA002200E0114A002A19D132681204120C134333600369DE60C7
:400E400001238B614C6204692B0C03D00A490B4800F098FD2A04120CA260002004E0084802E0084800E00748F8BDC046601E0010EC07000801008A00BB020000E01D001076
:400E800004028A0007028A0070B504000D0016000F4B1B68002B04D1AF2149000D4800F071FD0B4B1B682C2060431C18236A002B04D1B1214900074800F064FDE369B34295
:400EC00004D9236AB6009D51002000E0024870BDEC070008601E00100A028A0070B582B0040000230193002804D1D221FF312D4800F048FD2369002B04D1E9214900294822
:400F000000F040FD6369002B04D1D421FF31254800F038FD236A002B04D1EA214900214800F030FD6269D5682B0C24D01B041360136820691C4B1A68B423D358C3181B6888
:400F4000002B18DA01A9FFF765FD00280ED1019803681E0CFF221340E269934207D29B00226AD358002B02D0984700E0002631002069FFF70FFD2D042D0C0FD063691D602E
:400F80001B68636A002B03D098470023636203E0A36A002B00D098470023A36163691B6802B070BD601E00100808000810B50400084B1B68002B04D1B221FF31064800F077
:400FC000E1FC044B1B682C2060431818FFF786FF10BDC046EC070008601E0010134B1A683C23D35C83421DD9042904D94B1EFF3B9BB2132B18D8FF290CD91F2319400C4AFD
:401000000300C0339B009950D03080000423835000200AE007231940D0308000044BC150002002E0034800E002487047080800080000264001004A0070B5041E03D14A49AA
:401040004A4800F09FFCB023DB00494AD358002B00DA87E0474B22689A4203D94649434800F090FC23689B039B0BE279002A02D08022520400E000221343B022D2003C4972
:401080008B50A2883D4B9A4204D98C218900374800F078FC22893A4B9A4203D93949334800F070FCA388DB04D90C23891B04364A13400B43354A2E498B50A37A0F2B04D9B0
:4010C0008E218900294800F05DFCE37A0F2B03D92F49264800F056FCA289284B9A4203D92C49224800F04EFCA37A0F211940E27A1201FF2313400B43A289120226490A4024
:401100001343A27B1207C02189050A401343B122D20017498B50A379042B03D91F49134800F030FC228A164B9A4204D9912189000E4800F027FC0E4819494558194B1D40AE
:40114000A3791B02E022D20013402B4343504558154B1D40238A1B040B4A13402B434350002000E0114870BD1F020000A01E001000002640FFFF030029020000FF1F00001A
:40118000FF010000310200000000FF0184050000390200003A02000000FF1F00430200008C050000FFF8FFFFFFFF00FE03004A0070B505003149324A8B58802000060343DB
:4011C0008B502C0003E0012000F0D0FB013CB223DB002A4AD3585B0701D4002CF3D12749B122D2008858274B03408020800503438B50002D01D0002C0CD02049B022D20073
:401200008B588020000603438B5003E0012000F0ADFB013CB223DB00184AD358DB0701D4002CF3D1002D01D0002C08D01349B122D2008B58C020800503438B5013E00F4B8E
:40124000B121C90058580F4A02408020800502435A5008395A58520052085A5008495A58520052085A50002D03D0002C03D0002002E0002000E0044870BDC04600002640EC
:401280008C050000FFFFFFCF02004A000749C02252008B589B009B088020C00503438B508B588020000603438B50704700002640214B984230D00ED8402831D004D80028FA
:4012C0001FD010282AD031E080282BD080235B00984229D02AE0194B984229D007D8A0231B0698420DD0164B984212D01EE0154B98420AD0144B984209D0144B984215D12D
:4013000001E0002016E0124814E0124812E0124810E0A020C0030DE007480BE00F4809E00F4807E00F4805E0034803E00E4801E0A420C0037047C04606005200010000F07C
:40134000090000A0040000F0050000F0030000F0010052000200520003005200010050000200500005005200FF00520070B5124B1A683123D35C002B04D1C421FF310F48AE
:4013800000F000FB0C4B1D682C00B423EB582A6A944663441B68002B0BDB094B1868FFF787FF6B6801229A6063689B68002BFBD100E0044870BDC04608080008281F0010A4
:4013C000F00700080200500010B50D4B1861002805D002230370FD33437000234380094B1B6850229A5C002A08D051229B5C002B04D04F3A04490020FFF746FD10BDC046FC
:40140000F0070008080800085D01000810B502481430FFF7D9FF10BDF007000870B505000C0000285DD000295DD0FF230A689A4303D099212D4800F0A5FAFF2322699A43D5
:4014400003D09A21294800F09DFAA3685B0D03D09B21264800F096FA63685B0A03D09C21224800F08FFAE3695B0F03D09D211F4800F088FA236A5B0F03D09E211B4800F057
:4014800081FA1B4A11688B69EB1ADB0949691B01CB18216829607D211068415C6918E06808607E211068415C6918206908607F211068415C6918606908607C211068415C10
:4014C0006918A06808606168A961116880228A5CAD18A2692A60E2691A60226A5A60002002E0044800E0034870BDC046681F00100808000801005A0010B5B0235B059B89F0
:401500009BB2002B04D0B0235B059B899BB201E080235B0080225200934215D1184C23681968683A9B58C9180B680F208343963A13430B6021680C689C23CB58E3181968F3
:4015400081430A431A6019E00D4C2368196898229B58C918B02040050A4BC2580A4B13400A681343C022920013430B60226811689C23D358CB18054A82581A6010BDC04685
:401580000808000848180000FFFCFFFF4418000030B5B0235B059B899BB2002B04D0B0235B059B899BB201E080235B0080225200934215D1184C23681968683A9B58C918BE
:4015C0000B680F208343953A13430B6021680C689C23CB58E318196881430A431A6019E00D4D2B68196898229B58C918B0246405C12040012258094B13400A681343C022EE
:40160000920013430B602A6811689C23D358CB1822581A6030BDC04608080008FFFCFFFFB0235B059B899BB2002B04D0B0235B059B899BB201E080235B0080225200934298
:401640000DD1104B1B681A6898215B58D21811680D4B0B40C021C9010B43136011E0094B1B68196898229B58C918084BB0225205D258074B13400A681343C022920013439A
:401680000B60704708080008FF8FFFFF18180000FFFCFFFF30B5B0235B059B899BB2002B04D0B0235B059B899BB201E080235B008022520093420DD1134B1B681A6898216D
:4016C0005B58D2181168114B0B408021C9010B43136018E00C4D2B68196898229B58C918B02464050A4822580A4B13400A681343C022920013430B602A6811689C23D3586B
:40170000CB1822581A6030BD08080008FF8FFFFF4C180000FFFCFFFF10B5B0235B059B899BB2002B04D0B0235B059B899BB201E080235B0080225200934217D1002000F038
:4017400005FAB0235B055B78002B04D0B0235B055B78DBB200E02123222B03D8002803D1013004E0012002E0002000E0012010BDF8B50700012803D93D493E4800F002F9D4
:40178000B0235B055B78002B04D0B0235B055B78DBB200E021239DB2B0235B059B899BB2002B04D0B0235B059E89B6B201E080267600002000F0CAF9002814D180235B00DE
:4017C0009E4212D1222D12D82B4B1B685C682B4821582B4B19403B068022520413400B432350002404E0274C02E0264C00E0254C80235B009E4201D1222D03D880235B0030
:401800009E4232D01C4B1A683123D35C002B04D1C421FF311C4800F0B5F8174B1B681D6A80235B009E4203D1002F05D0174A06E0002F03D0164A02E0164A00E0164A0121D5
:401840002800FFF7C7F800280FD10B4B1A68B423D3585B191B68002BF7DBEB681B0E1B06A0221206934200D100242000F8BDC0464C0A0000E81F00100808000818F000000C
:40188000FFFFFFFE04004200281F0010010100300300000C010000300100000CF8B50500012804D982210901294800F06BF8FFF733FF002849D000F024F90700002D11D15C
:4018C0000021244B244AD150E823DB00B0225205D65CF6B20120FFF74BFF041E19D1FFF70BFE16E0B02252051C4BD0581A4B194958501B49565CF6B21A481A581F218A43B8
:4019000014390A431A50032000F030F8FFF7C2FE0024002C15D11049124A8B581F20834306401E438E50002D02D1FFF779FE08E0072000F01BF8FFF72BFE0020FFF718FF8F
:401940000400380000F0E1F800E0074C2000F8BDE81F0010307F00000000264010180000410700001CFF00000300420010B5034B1B78584300F0BCF810BDC046D0000008CE
:4019800001BEFEE770B50D00044C18220100200000F090F9A5610020FFF7F2FFF8050008054B802212069A649B6C002B01DB002000E002487047C04600002740030046004E
:4019C000054B8022120198585B68FF221A4202D08023DB021843704700002640FEE7C04610B50A4B0268DA6142681A6282685A62C2689A620269DA6242691A6382695A63D5
:401A0000C2699A63FFF7EAFF10BDC046F8050008F0B5474680B4002801D0192300E064238B429B415B42304D2C682268A826A45BA41822680327BA433B401A4322602C68BC
:401A40002268A45BA2181668284CA046264016602C682668AA229446A25A96193268BA43134333602A6813686546525BD3181A68444614401C60002805D010291BD92129DC
:401A80001BD8012024E0184B1B6855229A5C914215D956229A5C914213D957229A5C914211D958229A5C91420FD959229B5C99420DD804200CE000200AE0022008E0002000
:401AC00006E0012004E0022002E0032000E00520054A1268526813680F218B430343136004BC9046F0BDC04608080008FFFCFFFF0230800803D001300238FCD1C046C046EF
:401B00007047EFF3108072B6704780F310887047042805D10B4A116804230B4313600FE0094B1A681168A023D358CB180006C022920410401860034A136804218B431360A0
:401B40007047C04610E000E00808000810B50400094B1B689B6CC340DB0703D4BE210748FFF710FF044B1B681B691034A402E3580F20184010BDC0460808000828200010E5
:401B8000014B18607047C04608080008002243088B4274D303098B425FD3030A8B4244D3030B8B4228D3030C8B420DD3FF22090212BA030C8B4202D31212090265D0030B62
:401BC0008B4219D300E0090AC30B8B4201D3CB03C01A5241830B8B4201D38B03C01A5241430B8B4201D34B03C01A5241030B8B4201D30B03C01A5241C30A8B4201D3CB0256
:401C0000C01A5241830A8B4201D38B02C01A5241430A8B4201D34B02C01A5241030A8B4201D30B02C01A5241CDD2C3098B4201D3CB01C01A524183098B4201D38B01C01A67
:401C4000524143098B4201D34B01C01A524103098B4201D30B01C01A5241C3088B4201D3CB00C01A524183088B4201D38B00C01A524143088B4201D34B00C01A5241411A3E
:401C800000D20146524110467047FFE701B5002000F006F802BDC0460029F7D076E770477047C04603008218934202D019700133FAE77047030030B5002A0DD00C780133FB
:401CC0005D1E013A2C700131002CF5D19A189A4202D01C700133FAE730BD0000F8B5C046F8BC08BC9E467047F8B5C046F8BC08BC9E467047030000000100000001000000EF
:401D00000000000005036000040000000100000000000000010000000604600008000000C0070008B101001073797374656D5F70736F63365F636D30706C75732E6300008F
:401D4000F4010000140004010A000905080000006301000003000000000000000000000068000000000000000000000000000000121200000000000003000000000000003F
:401D800000000000CC0000BA0000000000000000000000001313000000001D1D47656E6572617465645F536F757263655C50536F43365C70646C5C647269766572735C7034
:401DC00065726970686572616C5C737973696E745C63795F737973696E742E630000000047656E6572617465645F536F757263655C50536F43365C70646C5C6472697665F7
:401E000072735C7065726970686572616C5C6970635C63795F6970635F6472762E68000047656E6572617465645F536F757263655C50536F43365C70646C5C647269766531
:401E400072735C7065726970686572616C5C6970635C63795F6970635F6472762E63000047656E6572617465645F536F757263655C50536F43365C70646C5C6472697665F6
:401E800072735C7065726970686572616C5C6970635C63795F6970635F706970652E630047656E6572617465645F536F757263655C50536F43365C70646C5C647269766554
:401EC00072735C7065726970686572616C5C737973636C6B5C63795F737973636C6B2E630000000047656E6572617465645F536F757263655C50536F43365C70646C5C641D
:401F00007269766572735C7065726970686572616C5C737973636C6B5C63795F737973636C6B2E680000000047656E6572617465645F536F757263655C50536F43365C70B1
:401F4000646C5C647269766572732F7065726970686572616C2F6970632F63795F6970635F6472762E68000047656E6572617465645F536F757263655C50536F43365C7077
:401F8000646C5C647269766572735C7065726970686572616C5C6770696F5C63795F6770696F2E630000000047656E6572617465645F536F757263655C50536F43365C707A
:401FC000646C5C647269766572735C7065726970686572616C5C6770696F5C63795F6770696F2E680000000047656E6572617465645F536F757263655C50536F43365C7035
:40200000646C5C647269766572735C7065726970686572616C5C737973706D5C63795F737973706D2E63000047656E6572617465645F536F757263655C50536F43365C70DF
:40204000646C5C647269766572735C7065726970686572616C5C70726F745C63795F70726F742E6300000000000020400000244000000040000000000000234000003040C8
:402080000000314000009F40000022400000104002020202020202020210101D800017007500FF030602063604102000000000007FC0000000040000000000000019324B70
:4020C000647D00804000080B100000000000FF012002001F00800004FF081018001000140018001C4044484C5000000008100000080000000400000004100000001200001E
:4021000004210000002100000016000040114002C41300138013A013200000001C0000000000214000002540000001400000344000002440000031400000324000001F4122
:402140000000234000001140010101010101010101101010800019005500F0000501053B04101C01010000000FC000000004000001010101011D3A5778960008200010123E
:4021800008000000001F00000010000F002000023F06080E00080009000A000B24282C3034000000100000009000000088000000080000008000000004F0000000F00000C6
:4021C000400200002005A000D00100018001A0012000000010000000000000000000001000000008C0000000FC210010C00000083805000034060008D801000000127A0003
:4022000000093D0000093D0000093D0004000000A00F00000000D007E9000010C10000100000000010B50004400B27D0144B1A68146AB023D15ACA00531AE3181B68002B30
:40224000F4DA3E220F4B1A600F4A104B1A60104B0621A322D20099500E4A98509B58084B1A68106AB023D15ACA00531AC31800225A60084B064AD358002BFADA10BDC0461E
:4022800008080008040126401E1F000008012640000026401C05000010B54378FF2B20D100F040FA04000F4B1A683123D35C042B04D8C421FF310C4800F0FCF9094B1A6811
:4022C000116AB023D35A9B00CB18DB685A68116801230B4313601368DB07FCD4200000F0F1F910BD08080008281F0010F0B585B001900291544B1A683123D35C002B04D17D
:40230000C421FF31514800F0D5F94F4B1B681E6AB4229A58971950229B5C002B77D000F0E1F9050003283CD1474B1A683123D35C062B04D8C421FF31444800F0BBF9424BBC
:402340001968B023CB5A5A00D21853000A6A94466344B4228A58D3181B68002B23DB002000F0C8F93A4B98421FD03A4B1A6900230021012000F096F9002803D0364C17E08A
:40238000013400E00024002000F0B4F9304B984202D0324B9C42F3D9304B9C4207D92E4C06E0002404E02C4C02E02B4C00E00024002C46D100F0B6F90390294B294AD358DC
:4023C000002B13DA234A0121300000F09BF900280ED10298FFF726FF019B002B0AD03B68002BFCDB00F096F9040004E01A4C02E0194C00E01C4C032D05D10121002000F0EC
:4024000069F90028F9D1039800F05CF919E000F089F905000F4A0121300000F073F9002809D1019B002B08D03B68002BFCDB00F071F9040002E0084C00E00B4C280000F0C8
:4024400041F9200005B0F0BD08080008281F001001018800F007000805005200EF4902001C0500000000264001005000F0B54F464646C0B4824B1A685468B0235B055B78F4
:40248000002B04D0B0235B055B78DBB200E02123212B67D1B023D15ACB005B1A116A8C46634419680029F5DADD6802212943D960B023D15ACB005B1A116A8C466344D968B7
:4024C000C9073ED5D9680904090C8C4684271168D559A84641440968090A0904FF26360431400D0088261168894691598846C14449460968090A0906294365462943D96000
:402500001168D359C9180A685E4B98461A4090252D012A430A605A4B99461A6813689C46925962441368414619400B002B4313604B461A681568D15969180B689359EB1830
:402540001B684F4B1A68B021555AEB005B1B156AAC46634400255D60156A515ACA00531AEB185B68484A116904230B431361012801D030BF00E020BF414B1A68B023D15A11
:40258000CB005B1A116A8C46634419680029F3DAB02149054978002904D0B02149054978C9B200E02121212932D1D968C90722D510688421525880180468324A1440DB68E3
:4025C0001B0C1B02FF2109020B40234303602C4B19688823C8580B689C46604403681A400D6AB023CC5AE1000B1BEB18DB681B0E1B021A430260224B1A68106AB023D15AAE
:40260000CA00531AC318DA6802218A43DA6028E086235B00E358002B23D11C4807681C4BA321C9005E581B4A904615681A4A0260062058503E21424611600631174A995014
:40264000164B134AD358002BFADA154A86235B00E2500E4B1F60A323DB000D4AD6500D4B1D60074B1A68106AB023D15ACA00531AC31800225A600CBC90469946F0BDC046A8
:4026800008080008FF00FFFF00ED00E00801264000002640040126401E1F00001C050000AAAAAAAA01B40248844601BC604700BFD10D001001B40248844601BC604700BF2C
:4026C0008519001001B40248844601BC604700BF0B1B001001B40248844601BC604700BF610B001001B40248844601BC604700BF2904001001B40248844601BC604700BF8D
:40270000ED0B001001B40248844601BC604700BFD509001001B40248844601BC604700BF6D13001001B40248844601BC604700BF031B001000000000000000000000000021
:402740000000000000000000000000000000000000000000000000000000000000000000000000000000000000000000000000000000000000000000000000000000000059
:402780000000000000000000000000000000000000000000000000000000000000000000000000000000000000000000000000000000000000000000000000000000000019
:4027C00000000000000000000000000000000000000000000000000000000000000000000000000000000000000000000000000000000000000000000000000000000000D9
:020000041008E2
:4000000000780408EB0208100D00000051030810510308105103081051030810000000000000000000000000000000004D0308104D030810000000004D0308104D030810DA
:400040004D0308104D0308104D0308104D0308104D0308104D0308104D0308104D0308104D0308104D0308104D0308104D0308104D0308104D0308104D0308104D03081000
:400080004D0308104D0308104D0308104D0308104D0308104D0308104D0308104D0308104D0308104D0308104D0308104D0308104D0308104D0308104D0308104D030810C0
:4000C0004D0308104D0308104D0308104D0308104D0308104D0308104D0308104D0308104D0308104D0308104D0308104D0308104D0308104D0308104D0308104D03081080
:400100004D0308104D0308104D0308104D0308104D0308104D0308104D0308104D0308104D0308104D0308104D0308104D0308104D0308104D0308104D0308104D0308103F
:400140004D0308104D0308104D0308104D0308104D0308104D0308104D0308104D0308104D0308104D0308104D0308104D0308104D0308104D0308104D0308104D030810FF
:400180004D0308104D0308104D0308104D0308104D0308104D0308104D0308104D0308104D0308104D0308104D0308104D0308104D0308104D0308104D0308104D030810BF
:4001C0004D0308104D0308104D0308104D0308104D0308104D0308104D0308104D0308104D0308104D0308104D0308104D0308104D0308104D0308104D0308104D0308107F
:400200004D0308104D0308104D0308104D0308104D0308104D0308104D0308104D0308104D0308104D0308104D0308104D0308104D0308104D0308104D0308104D0308103E
:400240004D0308104D0308104D0308104D0308104D0308104D0308104D0308104D0308104D0308104D0308104D0308104D0308104D0308104D0308104D0308104D030810FE
:400280004D0308104D0308104D03081010B5054C237833B9044B13B10448AFF300800123237010BDA448020800000000A8310810084B10B51BB108490848AFF30080084886
:4002C000036803B910BD074B002BFBD0BDE81040184700BF00000000A8480208A8310810B4420208000000007047FFF7FDFF72B6104C114DAC4209DA21686268A368043BCB
:40030000A2BFC858D050FAE70C34F3E70B490C4A00209142BCBF41F8040BFAE709480A490860BFF34F8F00F005FB00F0DFFA00F01DF8FEE7AC310810C4310810A4480208A9
:40034000584B02080040020808ED00E0FEE7FEE700B504207146084202D0EFF3098001E0EFF30880043002F0C3FBFEE780B582B062B602F06DFC00F057F900F0DDF90620B6
:4003800000F058F902F028FC394BB3F90030394AB2F90020934204DD374A13880133138008E0344AB2F90220934203DA324A138801331380304AB2F9003003EBD3735B10E8
:4003C00013802E4FDFF8A880DFF8C0A0DFF8C0902B4D01952B4E00963B4642465146484600F058F9284CAA21204600F03BFEBAF80010090A204600F035FE9AF800102046D0
:4004000000F030FEB9F80010090A204600F02AFE99F80010204600F025FEB8F80010090A204600F01FFE98F80010204600F01AFE3988090A204600F015FE3978204600F09A
:4004400011FE3188090A204600F00CFE3178204600F008FE2988090A204600F003FE2978204600F0FFFD5521204600F0FBFD8BE7CE4A02088C420208AC4A0208B04A0208FA
:40048000AA4A0208CA4A020800006640AE4A0208A84A02082DE9F04383B08046894615461E461B4C1B4F00970A2300220146204601F04EFC3B460A224946204601F0B6FDC7
:4004C00000970A2301224146204601F0B9FC00240BE0104B00930A23321900210C4801F04BFD0134E4B2013DEDB2012DF1D1084D084F00970A2332190121284601F03CFD52
:400500003A460021284601F005FD03B0BDE8F083000064400C4B02082DE9F04182B0884614461E46124D134F00970A2300220146284601F00DFC3B460A224146284601F0FB
:4005400075FD002509E00B4B0A22715D084801F06DFD0135EDB2013CE4B2002CF3D1054A0021034801F0D6FC02B0BDE8F08100BF000064400C4B020808B513460122FFF72F
:4005800089FF08BD00B583B002AB03F8012D0122FFF7C2FF03B05DF804FB00BF2DE9F04182B006460F4601249C40013CD21A551CAC405FFA84F80DF10702FFF7DDFF9DF8AC
:4005C0002020AA4002EA08089DF8072022EA040448EA04028DF8072039463046FFF7D2FF02B0BDE8F08100BFF0B583B004460D4616461F460DF10702FFF7BEFF37B10122E3
:40060000B2409DF807301A43D2B205E00122B2409DF8073023EA02028DF8072029462046FFF7B0FF03B0F0BD6822014B1A707047CC4A020810B582B0054B1C7800900323F6
:4006400002221A212046FFF7A9FF02B010BD00BFCC4A020810B582B0054B1C780090022304221B212046FFF799FF02B010BD00BFCC4A020810B582B0054B1C7800900223E5
:4006800004221C212046FFF789FF02B010BD00BFCC4A02082DE9F04180460F4616461D46154C23460E223B2114480078FFF7F2FE2278637843EA0223A8F80030A278E37858
:4006C00043EA02233B802279637943EA02233380227A637A43EA02232B80A27AE37A43EA0223069A1380227B637B43EA0223079A1380BDE8F08100BFB44A0208CC4A0208FF
:4007000008B5034606226B2102480078FFF76CFF08BD00BFCC4A020810B582B0054B1C780090032302226B212046FFF737FF02B010BD00BFCC4A020808B50120FFF7ECFF48
:400740000020FFF787FF0020FFF794FF0020FFF7D7FF08BD08B5012000F044FC08BD00BF704700BF5A4AD2F8803303F00F0303F1D00152F8212012F0070202D0042A02D028
:400780000FE0544911E003F1C002514951F8222002F01F02112A06D0132A04D04FF4FA4103E04D4901E04FF400418BBB484BD3F8902502F00100D3F88825C2F30172D3F899
:4007C000883513F0405F07D0414BD3F88835C3F30173012B02D102E0012300E0002303B108B9032A46D13A48D0F88025C2F31103D0F88425C2F30C02D0F88005C0F3006078
:400800000130B1FBF2F202FB03F2B2FBF0F131E0012B2FD12E4BD3F8402602F00100D3F80026C2F30172D3F8003613F0405F07D0274BD3F80036C3F30173012B02D102E08C
:40084000012300E0002303B108B9032A12D12048D0F8002602F07F02D0F80036C3F30423D0F80006C0F3044002FB01F2B2FBF3F2B2FBF0F1164BD3F88033C3F3011321FA8F
:4008800003F216490A601648D0F89030C3F3072301330069000E0130B2FBF0F04860B2FBF3F38B60CB6003F5742202F23F220D48A0FB0202C2F387420A7403F2E7330A4AC4
:4008C000A2FB03239B094B61DB038B61704700BF0000264000127A0000366E01904202080000214083DE1B43D34D621008B50D4802F062F9FFF734FFFFF734FF0022114656
:40090000042000F037F9084800F0CAF9074B1B6893F8513013B1064800F032FA02F0C4F808BD00BF9C300810C0480208D04A0208182D081008B502F038F9074AD2F8883005
:4009400043F47003C2F88830BFF34F8FBFF36F8F02F02FF908BD00BF00ED00E038B50D4B9A680D4B9A420FD10D46044621B940F237110A4802F0ACF804F11003064A52F8DA
:40098000230042F8235038BD1030054B53F8200038BD00BF00ED00E0004002085C2D08100000081048B338B504460D464368072B03D93221134802F08BF8B4F900306268EB
:4009C000002B08DB5201D2B203F1604303F5614383F8002305E003F00F035201D2B20A49CA540A4B9A680A4B9A4208D12946B4F90000FFF7B3FF002038BD064870470020B0
:400A000038BD00BF5C2D081014ED00E000ED00E0004002080100560038B50B4B1B68D3F8B4301B58002B0DDA0D4604460B0C1B0423B140F2D521054802F04AF8A9B26160AC
:400A4000002038BD024838BDD04A0208A02D081001008A0038B50368002B01DA002300E0094B73B90D460446C2600B0C1B0423B140F2BB21054802F02BF8A9B2A1600020F8
:400A800038BD014838BD00BF01008A00A02D081038B504460D4619B99921084802F018F8074B1B68D3F8B4301B59002B03DAE3682B60002038BD034838BD00BFE02D08105D
:400AC000D04A020801008A00254B1B6893F8313083423AD900293AD00B6813F01F0F38D170B50D4604461E4B1B6893F83130984204D340F2C3111B4801F0EAFF184B1B683C
:400B0000186AB3F8B03004FB0304174E34602A68D2080021686802F0D7F800212046FFF77BFF346825B940F293310E4801F0D0FF2A4600212046FFF78DFF60B900210A4B06
:400B40001868FFF769FF40B970BD084870470748704706487047064870BD054870BD00BFD04A0208A02D0810404A020803018A0001018A0010B504461346B2B9A9B9124B62
:400B80001B6893F83130984204D340F2C3110F4801F09EFF0C4B1B681A6AB3F8B03004FB03240B4B1C60002010BD43B149B1084A51609360111D2046FFF786FF10BD05484F
:400BC00010BD044810BD00BFD04A0208A02D0810404A020803018A002DE9F0411B4B1B68DC68236883422CD90D464609A0EB4610012303FA00F819B901F0D7FF074600E0FA
:400C00000027124B18680368002B01DA002300E00F4B83B9626852F8263018EA030F05D023EA080342F82630002400E0094C0021FFF7F2FE00E0084C25B9384601F0B9FF12
:400C400000E0064C2046BDE8F08100BF404A020801008A00020188000301880004018A000B4B1B68DB681A6882420CD94109A0EB4110012202FA00F05B6853F8213018420D
:400C800003D004487047044870470448704700BF404A02080101880004018A0000018800024B1B680BB9014B186070474C4A02082DE9F8430446884691461D46089F2C4BF3
:400CC0001B681BB9B5212B4801F002FF284B1B682C2000FB04F01C18EEB21E50C5F3072363602D0CA560244B1B6893F831309E4204D340F2C311214801F0EAFE1E4B1B6843
:400D0000196AB3F8B02006FB02162661666893F832309E4204D340F2DF11184801F0D8FE154B1B681D6A803605EB46156561A668330C1B0423B14FF4FF71104801F0C8FE27
:400D4000330C1B0423B140F2FF110C4801F0C0FEB3B243EA0646AE60C4F81C90C4F820800023A36117B1B7F90030A381BDE8F8834C4A0208202E0810D04A0208A02D08102A
:400D8000F0B58FB0044618B95221274801F0A0FEA369072B03D95621234801F099FEE36A1BB95821204801F093FE236B1BB959211D4801F08DFE07AD04F114060FCE0FC58A
:400DC00037682F6002AD26460FCE0FC533682B60164B1B68B3F93620079B1344ADF83030089B0D93A26AE16A0CAD00953B460A98FFF75EFF00210091069B0A460598FFF75B
:400E000057FF216B2846FFF7CDFDBDF93030002B08DB590903F01F03012202FA03F3044A42F821300FB0F0BD202E0810D04A020800E100E0F8B506460F461D4614461AB984
:400E4000FD211F4801F044FE1E4B1B681BB9FE211B4801F03DFE1B4B1B682C2101FB063001FB07314B68012202FA03F31B04466802FA06F60269EAB18F69EFB91268002AD9
:400E800001DA002200E0104AC2B92288134323600369DC6001238B614D620469330C1B0423B140F2BB21094801F012FEB2B2A2600020F8BD0648F8BD0648F8BD0548F8BD54
:400EC000202E08104C4A020801008A00A02D081004028A0007028A00F8B505460F4616460E4B1B6823B94FF4AF710D4801F0F0FD0A4B1B682C2404FB0534236A23B94FF456
:400F0000B171074801F0E4FDE369B34204D9236A43F826700020F8BD0248F8BD4C4A0208202E08100A028A0070B582B000230193044620B940F2D111284801F0C9FD23698A
:400F400023B94FF4E971254801F0C2FD636923B940F2D311214801F0BBFD236A23B94FF4EA711E4801F0B4FD6369DD682A0C20D012041A601B682069194B1B68D3F8B43093
:400F8000C358002B15DA01A9FFF782FD60B9019803681E0CDBB2E269934206D2226A52F8233013B1984700E0002631462069FFF733FDADB275B16369ADB21D601B68636A9C
:400FC0001BB198470023636202E0A36A03B198470023A36163691B6802B070BD202E0810D04A020810B50446074B1B6823B940F2B111064801F06CFD034B1B682C2000FB89
:401000000430FFF791FF10BD4C4A0208202E081010B4D0F8003303F00F03072B06D900230DE0D0F84043CC54013300E000239342F7D306E0D0F8404321F813400133934257
:40104000F8D35DF8044B704710B51446D0F80833C3F308039A4200D31C462246FFF7D8FF204610BD036813F4006F01D0802200E04022D0F80832C3F30803934203D0C0F835
:401080004012012070470020704700BF10B4D0F8003203F00F03072B06D900230DE0CC5CC0F84042013300E000239342F7D306E031F81340C0F8404201339342F8D35DF88F
:4010C000044B704710B51446036813F4006F01D0802200E04022D0F80832C3F30803D31AA34200D81C462246FFF7D0FF204610BD02E0C0F84012013A002AFAD1704700BF74
:4011000010B51446036813F4006F01D0802200E04022D0F80832C3F30803D31AA34200D81C462246FFF7E4FF204610BD10B54A6841F201039A4231D1D0F80833C3F3080367
:40114000B3B10B6A43F040030B620B7873B1D0F8043343F48033C0F80433D0F8043323F48033C0F80433D0F8043301E0D0F840330B6A43F020030B620B6A23F010030B6221
:40118000036E23F4204303660023C0F8C83F0123C0F8C03FD0F8C03F202221E0D0F80832C3F30802D0F80832C3F3C03313440A6BD21A4A630A6A12F0080F05D1CA6A1A444D
:4011C000CA628A6AD31A8B620B6A43F004030B620B6A23F001030B620023C0F8883F1022D0F84C4F40F201131C420DD0036823F00043036000238366C366036843F00043EE
:401200000360036842F040024FF080534B604B6C0BB11046984710BDD0F80C3F13F0020F1DD00222C0F8002FD0F8002FD0F8002F12F0040F02D04FF4001001E04FF480103F
:401240008A6802438A604A68B2F5B81F07D00A7B12B14FF4C01201E04FF4B0124A6013F4807F03D08A6842F400028A6013F0010F03D08A6842F480028A6040F21112134248
:4012800002D04FF4C0134B60704700BF0023C0F8C83FC0F8883F836E23B140F21713C0F8083F704740F21313C0F8083F182383664FF4B8134B60704738B5D0F80C4F036E81
:4012C00023F4807303660023C0F8C83FC0F8883FC0F8083F40F21713C0F8003FD0F8003F8B6823F480338B604B7B13B18B69CB610BE08D69D0F80822C2F30802D0F80832DB
:40130000C3F3C0331344EB1ACB6140F201131C421BD0036E9B0F032B05D114F4827F14BF0123002300E001235BB1036823F00043036000238366C366036843F000430360FE
:4013400003684FF080534B601BE00B7893B1D0F8043343F48033C0F80433D0F8043323F48033C0F80433D0F804330123C0F8C03FD0F8C03F0B7B0BB10B4B01E04FF08053C7
:401380004B604A6C72B14B7B13B14FF4802001E04FF400308B6813F0F87301D04FF400231843904738BD00BF000010100346002940DB11F0C00F06D0002181664FF0805000
:4013C00050602F4844E011F4807F36D111F0010F0ED050682B49884232D1196E11F0804F0CBF012100214FF08050506026482FE011F0020F06D050682249884223D1002124
:40140000224825E011F0100F05D04FF080515160002108461CE050681A49884216D1517B11B14FF4881101E04FF4A0115160002108460DE0012116480AE00121154807E034
:401440000121114804E00021134801E00021084679B1196821F00041196000219966D966196841F0004119601B684FF080535360704740F21712C3F8002FD3F8003F7047FB
:401480000820AA00000013100620AA000420AA000320AA000720AA000520AA00036853B110B50446012001F007FB2368013B23601BB1002010BD002070474FF0004010BD74
:4014C00070B505460C4691F8243013F0FF0F0ED1CB6A63B94B6C0BB108209847E36AB3FA83F35B0984F824300123C5F8883F94F8243013F0FF0F16D063783BB12B6813F40E
:40150000006F01D0802202E0402200E00122FF212846FFF7F5FD236B18442063236A43F00803236270BDE26A012A11D963780BB1013A00E00122A16A2846FFF7C3FD236B2F
:4015400003442363E36A1B1AE362A36A1844A062D5F80832C3F30803802B23D0E36A012B20D101F022FBA36A1B78C5F840324026C5F8806FD5F8803F01F01BFB236B013358
:4015800023630023E362A36A0133A362C5F8886F63783BB1236A43F002032362636C0BB10420984770BD00BF38B54B68B3F5A81F03D14FF4C0134B6038BD4B68B3F5A01F05
:4015C0004DD10C4605464A69012A11D94B780BB1013A00E0012221692846FFF773FDA3690344A36163691B1A6361236903442361D5F80832C3F30803802B14D06369012B8B
:4016000011D101F0D2FA23691B78C5F840324023C5F8803FD5F8803F01F0CBFAA3690133A361002363616369CBB9237B33B14023C5F8883F4FF4A813636005E00023C5F832
:40164000883F4FF4B0136360637843B1A36843F40033A360636C13B14FF48030984738BD70B504460D468A6C82B3036813F4803F06D0D0F84C3F13F0400F03D0022002E0C9
:40168000002000E00020236E13F4006F06D1D4F84C3F13F0800300D001231843C0B190470123C4F8C03FD4F8C03F024648B91023C4F8403FD4F8403F40F2D113C4F8483FB3
:4016C00007E040F2C113C4F8483F02E0002200E00022D4F8043243F48033C4F80432D4F8043223F48033C4F80432D4F804320AB9012300E00223E366002A59D1666E06F0C3
:4017000010066B6C23B10EB1012000E0022098477EB141F202036B602B6A43F001032B626B6B2B63002385F824300123C4F8883F70BD41F201036B602B6A43F010032B6206
:401740000123C4F8C83F2B78BBB1EB6BBBB1236E43F400532366ED6B802D05D9A5F18003802B0ED8813D0DE0013D236E43F4004323660023C4F8C83F04E0002502E000250D
:4017800000E03F25236813F4006F01D0802300E040239D4204D34FF42071064801F098F9D4F8043323F0FF03EDB21D43C4F8045370BD00BF602E081038B54B68B3F5881F28
:4017C00003D0B3F5901F1AD038BD0B69D0F840231A708B6901338B614B69013B4B612BB10B6901330B610423836638BD0B7B13B14FF4C01301E04FF4B0134B6038BD0C46D9
:4018000005464A690969FFF71FFCA3690344A36163691B1A6361226910442061012B24D82B6E23F480732B666369012B16D12B6813F4006F01D0802300E0402323B94FF491
:401840002071184801F044F9D5F8043323F0FF03C5F804334FF48813636038BD0023C5F8C83F4FF4B013636038BD402B01D89C1E00E03F242B6813F4006F01D0802300E063
:4018800040239C4204D34FF42071064801F020F9D5F8043323F0FF02E3B21343C5F8043338BD00BF602E081038B5CB6B002B50D00B78002B3FD00C460546D0F80423D2B258
:4018C0000132896BFFF7C0FB236C03442364E36B1B1AE363A26B1044A063802B06D9A3F18002802A0FD8A3F181040DE02B6E43F400432B66E36B0BB15C1E00E00024002300
:40190000C5F8C83F00E03F242B6813F4006F01D0802300E040239C4204D34FF42071104801F0D6F8D5F8043323F0FF02E3B21343C5F8043338BD0123C3668A6B0B6CD0F8D3
:401940004003D0540B6C01330B64CB6B013BCB6338BD0223C3660023C0F8C83F38BD00BF602E0810F8B50B78012B03D00C7A1CB9002702E0002700E00127002800F0A780C6
:40198000002900F0A680002A00F0A58016460C460546013BDBB2022B03D94F214F4801F097F8637803B163791BB150214B4801F08FF894F90330002B03DA5121474801F0EA
:4019C00087F8237913F0010F03D05221434801F07FF82369102B03D95321404801F078F8E368102B03D954213C4801F071F8637913B14FF4803100E00021E27912B14FF4D5
:401A0000807300E000230B4343F400632B60A37913B94FF4006300E000232269013A02F00F021A43E368013B1B01DBB21343227843EA82732B6617B140F2073301E040F26C
:401A40000713C5F800330FB1254B00E0254B2B6763780BB17F2300E00023C5F80433E3785B00DBB2227943EA0243C5F810331E4BC5F80032A3780BB1402300E00123C5F877
:401A800004320023C5F8C83EC5F8883EC5F8C83FC5F8883FC5F8083F2378022B02D040F2D11300E00023C5F8483F63783370A37873704FF0805373600020B060B061306210
:401AC0003064F0633063F0627064B064F8BD0748F8BD0648F8BD0548F8BD00BFA42E081003002A0013102A00070101000120AA0038B505460C4621B940F2C321194800F0B2
:401B0000E7FF2B6E9B0F012B17D1174B2344174A93421ED9A4F5BD13A3F5D66302F5611202F56162934216D9A4F57104A4F533440F4B9C4211D80F4838BD84B1286EC0F347
:401B400003102B6E03F00F0318440230B4FBF0F038BD094838BD094838BD002038BD002038BD00BFA42E081020AD88FF405B730040555C0440420F00801A0600A086010094
:401B80002DE9F84307468846914622B940F21221624800F09DFF08F1FF34614B9C4204D940F213215D4800F093FF3B6E9B0F012B0DD149463846FFF79BFF0546D7F8003305
:401BC00023F40073C7F80033564B3B67A2E0544B9C421FD8544B984509D8A9F5BD13A3F5D663524A934218D90021012328E0504B984507D84F4B4B444F4A934213D90021EA
:401C000001231DE04D4B4B444D4A934212D90021012315E00021012312E0002141F288352E460B460CE000214FF461754FF4C8660B4605E001214FF4BE754FF41B76002362
:401C4000002B66D13F4BB3FBF9F3B6FBF3F404FB03F2964200D90134102C00D910240F2C8CBF00220122B5FBF3F606FB03F39D4200D90136102E00D91026A519B9FBF5F530
:401C80000FE022B10F2C09D80134002206E00F2E04D801360F2C8CBF00220122A519B9FBF5F5454502D9A3191F2BEAD941B1D7F8003343F40073C7F80033234B3B6707E0DD
:401CC000D7F8003323F40073C7F80033154B3B67E31F092B04D940F283511C4800F0F8FE3B6E23F0F003013C2401E4B223433B66731F0B2B04D94FF4B461144800F0E8FE24
:401D00003B6E23F00F03013E06F00F061E433E6600E000252846BDE8F88300BFA42E08103F420F0013102A00A0860100502D1900801A060020AD88FFA0432100807E25FF96
:401D4000C02BAF0000CA9A3B03002A00E42E08102DE9F04182B005460C4617469846089E11F0800F04D04FF4D961314800F0B0FE304B984504D940F2C9612D4800F0A8FE48
:401D8000012F04D940F2CA61294800F0A1FE0023C5F8483F7368B3F1805F41D14FF47A7303FB08F30193244B7360012F14BF00230123737340F21713C5F8003FD5F8003F4F
:401DC0000423C5F8C03FD5F8C03FD5F8043243F48033C5F80432D5F8043223F48033C5F80432D5F804326400E4B23C43C5F840420223AB66D5F8004F24F0F804E405E40D9D
:401E0000D5F8403F03F0C0031C4301A8FFF746FB54EA0001EED032462846FFF7C7FA00E0064840F2D113C5F8483F02B0BDE8F081A42E081037894100000013100220AA009D
:401E40002DE9F04182B005460F4614469846089E11F0800F04D040F229712A4800F038FE294B984504D940F22A71264800F030FE012C04D940F22B71224800F029FE7368E8
:401E800013F4801F39D04FF47A7303FB08F301931E4B7360012C14BF0023012373736B6E13F0200F01D0092300E00123AB666B6E13F0200F05D0002009E001A8FFF7EEFAC0
:401EC00000E0002018B9AB6E13F0010FF5D170B97F00FFB23C43C5F84042D5F8000F40F20714044001A8FFF7D9FA2043F5D0324601462846FFF75AFA00E0054802B0BDE806
:401F0000F08100BFA42E081037894100000013100220AA0070B582B005460C461646134B994204D940F28C71114800F0D1FD736813F4801F17D04FF47A7303FB04F40194C8
:401F40001823AB66D5F8004F24F0EE04E405E40D01A8FFF7A3FA54EA0001F3D032462846FFF724FA00E0034802B070BD37894100A42E08100220AA002DE9F04383B0074657
:401F800088461C460A9D914622B94FF4FB61244800F09EFD234B9C4204D940F2D971204800F096FDB8F1010F04D940F2DA711C4800F08EFD6B68B3F5881F2BD14FF47A7332
:401FC00003FB04F40194D7F8C06F06F00406D7F8001F40F201140C4001A8FFF75FFA44EA00010EB90029EED046B1D7F8403389F800300523C7F8C03FD7F8C03F2A46384676
:40200000FFF7D4F9034630B9B8F1000F03D10422BA6600E0044B184603B0BDE8F08300BFA42E0810378941000220AA00F0B583B005460F4614461E46134B9A4204D940F688
:402040003201124800F044FD7368B3F5A01F17D14FF47A7303FB04F40194C5F84072D5F8004F24F0F804E405E40D01A8FFF716FA54EA0001F3D032462846FFF797F900E04B
:40208000034803B0F0BD00BF37894100A42E08100220AA0070B504460E46D0F88C3E13F0010F07D04FF480534B600123C0F8803ED0F8803ED4F84C5F40F201131D420FD0E4
:4020C000336A15F4807F02D04FF4807200E08022134333620023C4F8C83F45F010050EE015F0100F0BD0D4F80833C3F3080333B1F36B23B10123C4F8C43FC4F8C83FD4F85A
:40210000CC3F13F0010F08D031462046FFF7CCFB0123C4F8C03FD4F8C03F15F0100F0AD031462046FFF702F81023C4F8403FD4F8403FD4F84C5F15F0C00F0DD031462046DC
:40214000FFF78EFA0123C4F8803ED4F8803EC023C4F8403FD4F8403FD4F88C3F13F0410F08D031462046FFF7ABF90123C4F8803FD4F8803F70BD00BF70B506460D46D0F875
:40218000004E14F0020F0AD0836E2BB1002383668B6843F080738B604FF4C0136B6014F0010F05D029463046FFF736F824F0040414F0080F08D029463046FFF7FDFA01232D
:4021C000C6F8C03FD6F8C03F14F0040F08D029463046FFF7E9F90123C6F8803FD6F8803F6B68B3F5C01F03D129463046FFF764F86B68B3F5B01F03D129463046FFF746F8DF
:4022000070BD00BF08B54B6813F4801F02D0FFF7B3FF08BDFFF73EFF08BD00BF2DE9F84305460C46036813F4006F02D04FF0800801E04FF04008D5F8007207F00F07A26A7E
:40224000012A19D9D4F82490E262561EB9F1000F00D026B940F27351254800F039FC324649462846FEF72EFFA36A1B1AA362072F00D9400048446062D5F80832C3F30803D6
:40228000984533D0A36A012B30D10023A362072F02D8636A1E7801E0636A1E8800F085FCC5F840624FF40073C5F8803FD5F8803F00F07FFCD5F8883F23F4007222F00102EA
:4022C00042F4007623F4EE6323F0030323B140F22A41084800F0FCFBC5F8886F236843F002032360236B0BB101209847BDE8F883242F0810602E08102DE9F04105460C46B0
:40230000036813F4006F01D0802600E040267608A769D4F81C8017B1B8F1000F04D14FF49961314800F0D4FB424639462846FEF78BFE236A03442362E3691B1AE36173BB00
:40234000A368FBB1E3689E4201D8013E00E05E1E2B6813F4006F01D0802300E040239E4204D34FF42071214800F0B2FBD5F8043323F0FF03F6B21E43C5F804630123C5F88F
:40238000C83F02E00023C5F8C83F636823F001036360236B33B304209847BDE8F081A169D5F8002302F00F02072A00D940000844A0619E4216D95C1E2B6813F4006F01D064
:4023C000802300E040239C4204D34FF42071074800F07EFBD5F8043323F0FF02E3B21343C5F80433BDE8F081242F0810602E0810002800F0A48170B50546002900F0A181B0
:4024000016460C460B78022B03D93F21A24800F05FFB637B023BDBB2062B03D940219E4800F056FBA37B3BB1022B05D0032B03D04121994800F04CFB94F82130012B03D925
:402440004221954800F044FB94F82830012B03D94321914800F03CFB2378012B06D86368083B082B94BF0023012307E0A37F2BB16368013B062B94BF002301231BB1452134
:40248000854800F025FBA368053B042B03D94621814800F01DFB6369FF2B03D947217E4800F016FBA369FF2B03D948217A4800F00FFBA37C6BB1237833B9A368092B05D1A2
:4024C000A37B2BB1012304E0012302E0012300E000231BB14A21704800F0FAFA636B23F4366323F00D031BB14C216B4800F0F0FAE36B23F4EE6323F003031BB14D216648BC
:4025000000F0E6FA2378022B01D1A37F13B16268013A00E00022237F13B14FF4803100E00021A368082B02D84FF4006300E000230B4302F00F02134343F000732B60226BC3
:402540002B6813F4006F01D0802300E040239A4203D36221504800F0BBFAA26B2B6813F4006F01D0802300E040239A4203D36321494800F0ADFA626A2B6813F4006F01D058
:40258000802300E040239A4203D36421424800F09FFA23781B0603F040732B64637F0BB1402200E00022A37C13B14FF4806300E000231343227C12B14FF4807200E00022FE
:4025C0001343627C12B14FF4007200E000221A43E36A013B1B0403F470231343627B013A02F007021343A27B120102F030021343AB64237B13B14FF4807200E00022E37B2F
:4026000023B92378022B03D1012302E0012300E0002313B14FF4007300E000231A43A368013B03F00F031343C5F80033227DA3691B0403F47F031343C5F81033E26AD5F8D7
:40264000003303F00F0303339A4201D3102A03D97A21114800F03CFAE37F23B12378012B03D0002302E0002300E0012313B14FF4807200E00022637B013B03F007031A43A1
:40268000A37B1B0103F0300313436B64237B2BB14FF4807203E000BF642F08100022A368013B03F00F0313432278012A02D14FF4803200E000221343C5F8003294F8303015
:4026C000C5F8043394F8203013B14FF0007200E0002294F82130012B02D14FF0807300E00023134394F82820012A02D14FF4803200E00022134394F8242013432B6594F8CB
:402700003830C5F80432636B23F4926323F002031B051B0DC5F8C83FE36B23F08C035B055B0DC5F8883F76B1002070603060B060F0603062F0623063044B736370BD0448E8
:402740007047034870BD002070BD00BFEFCDAB000160AA000B694A69934202D34869181A7047CA694869101A184470472DE9F04107460D46036813F4006F02D04FF08008BF
:4027800001E04FF040084FEA5808D7F80863C6F308062C6926E00134EB689C4200D100246B699C420FD12B6B0BB1082098476B699C4208D10023C7F8C83F0CB1013C13E0D5
:4027C000EC68013C10E0D7F84023D7F8003303F00F03072B02D8AB681A5502E0AB6823F81420013E002ED6D12C61EC6829463846FFF7B0FF201A804519D908B1441E00E0DA
:4028000000243B6813F4006F01D0802300E040239C4204D34FF42071064800F059F9D7F8040320F0FF03E0B21843C7F80403BDE8F08100BF602E081038B504460D46D0F823
:40284000003E13F0080F35D0D0F8CC3F13F448730AD04A681A434A60C0F8C03FD0F8C03F0B6B0BB110209847D4F8CC3F13F4006F09D06B6843F400636B604FF40063C4F854
:40288000C03FD4F8C03FD4F8CC3F13F0010F11D0EB6923B129462046FFF72EFD05E0AB681BB129462046FFF761FF0123C4F8C03FD4F8C03FD4F8003E13F0040F2ED0D4F8E2
:4028C0008C3F13F4A0630AD02A681A432A60C4F8803FD4F8803F2B6B0BB120209847D4F88C3F13F0010F08D029462046FFF796FC0123C4F8803FD4F8803FD4F88C3F13F492
:40290000007F0BD00022C4F8882F2B6823F001032B60EA622B6B0BB10220984738BD00BF1F4B98422DD00CD840282ED003D8E8B1102828D02FE0802829D0B0F5807F28D0A5
:4029400029E0184B984228D006D8B0F1204F0DD0154B984212D01EE0144B98420AD00133984209D0023B984215D101E0002070470F4870470F4870470F4870474FF4A00078
:402980007047074870470D4870470D4870470D487047034870470C4870474FF4A400704706005200010000F0090000A0040000F00100520002005200030052000100500058
:4029C0000200500005005200FF00520038B5124B1B6893F83130012B04D840F2C3110F4800F076F80C4B1D682A6AB5F8B03013442C46D5F8B420D358002B0BDB084B1868EB
:402A0000FFF78EFF6B6801229A6063689B68002BFBD138BD034838BDD04A0208A42F0810504A0208020050001A4B186128B102230370FF23437000234380174B1B6893F8AA
:402A400050202AB300B583B0B3F93830ADF800300023019311496846FDF7A4FFBDF90030002B08DB590903F01F03012202FA03F30B4A42F82130084B1B6893F8513023B1CC
:402A8000022208490120FEF727FA03B05DF804FB704700BF504A0208D04A02082543020800E100E0DD43020808B50248FFF7BCFF08BD00BF644A020808B5034B1B7800FB3B
:402AC00003F000F069F808BDA042020801BEFEE738B50D46044C18220146204600F0FCF8A5610020FFF7F2FF10480208FEE700BF08B50268254BDA6142681A6282685A6231
:402B0000C2689A620269DA6242691A6382695A63C2699A631E4A916AD963D16A1964516A5964516B9964926BDA64F1EE103A13F0900F27D0026A154B1A65426A5A65826AA9
:402B40009A65C26ADA65026B1A66426B5A66826B9A66C26BDA66026C1A67426C5A67826C9A67C26CDA67026DC3F88020426DC3F88420826DC3F88820C26DC3F88C20026E4B
:402B8000C3F89020FFF7B2FF08BD00BF1048020800ED00E0000000000230800803D001300238FCD100BF00BF7047EFF3108072B6704780F310887047014B1860704700BF09
:402BC000D04A020808B502490248FFF735FE08BDD44A02080000664008B5114B1B785BB9104A11491148FFF703FC11491148FDF7D9FE01220A4B1A700E4BB3F90030002B01
:402C000008DB590903F01F03012202FA03F30A4A42F82130054A136843F00043136008BDA44A0208D44A02085431081000006640C52B08104C2D081000E100E008B5024909
:402C40000248FFF7DFFA08BD0C4B02080000644010B5144B1B788BB9134C144A14492046FEF780FE134A14492046FEF789FF13491348FDF797FE01220A4B1A70104BB3F99D
:402C80000030002B08DB590903F01F03012202FA03F30C4A42F82130034A136843F00043136010BDA54A0208000064400C4B02089431081084D71700A08601003D2C0810F6
:402CC000542D081000E100E002440346934202D003F8011BFAE7704710B5034642B111F8014B03F8014B013A002CF7D11A4400E010BD934202D003F8014BFAE710BD000022
:402D0000F8B500BFF8BC08BC9E467047F8B500BFF8BC08BC9E46704703000000010000000100000000000000050360000400000001000000000000000100000006046000B8
:402D400008000000204A0208550708102E000000070000002C0000000300000047656E6572617465645F536F757263655C50536F43365C70646C5C647269766572735C70F6
:402D800065726970686572616C5C737973696E745C63795F737973696E742E630000000047656E6572617465645F536F757263655C50536F43365C70646C5C647269766527
:402DC00072735C7065726970686572616C5C6970635C63795F6970635F6472762E68000047656E6572617465645F536F757263655C50536F43365C70646C5C647269766562
:402E000072735C7065726970686572616C5C6970635C63795F6970635F6472762E63000047656E6572617465645F536F757263655C50536F43365C70646C5C647269766526
:402E400072735C7065726970686572616C5C6970635C63795F6970635F706970652E630047656E6572617465645F536F757263655C50536F43365C70646C5C647269766584
:402E800072735C7065726970686572616C5C7363625C63795F7363625F636F6D6D6F6E2E6800000047656E6572617465645F536F757263655C50536F43365C70646C5C6422
:402EC0007269766572735C7065726970686572616C5C7363625C63795F7363625F6932632E63000047656E6572617465645F536F757263655C50536F43365C70646C5C64BC
:402F00007269766572735C7065726970686572616C5C7363625C63795F7363625F6932632E68000047656E6572617465645F536F757263655C50536F43365C70646C5C6476
:402F40007269766572735C7065726970686572616C5C7363625C63795F7363625F756172742E680047656E6572617465645F536F757263655C50536F43365C70646C5C6478
:402F80007269766572735C7065726970686572616C5C7363625C63795F7363625F756172742E630047656E6572617465645F536F757263655C50536F43365C70646C5C643D
:402FC0007269766572732F7065726970686572616C2F6970632F63795F6970635F6472762E6800000000204000002440000000400000000000002340000030400000314041
:4030000000009F40000022400000104002020202020202020210101D800017007500FF030602063604102000000000007FC0000000040000000000000019324B647D0080F0
:403040004000080B100000000000FF012002001F00800004FF081018001000140018001C4044484C50000000081000000800000004000000041000000012000004210000CA
:40308000002100000016000040114002C41300138013A013200000001C0000000000214000002540000001400000344000002440000031400000324000001F410000234055
:4030C00000001140010101010101010101101010800019005500F0000501053B04101C01010000000FC000000004000001010101011D3A577896000820001012080000000A
:40310000001F00000010000F002000023F06080E00080009000A000B24282C3034000000100000009000000088000000080000008000000004F0000000F0000040020000FC
:403140002005A000D00100018001A0012000000010000000000000000C00000008000000000200000000000000000000000000000000000000000000000000000000000050
:403180000B0000000000000000000000000000000000000002000000000000000000000000000000000000000000000000000810004002088C020000CC3108108C42020825
:4031C00084050000A4480208B402000027B1B03C00127A0000093D0000127A0000127A0008000000401F00000000A00FB10208108D0208100000000080B2C10050B3164B0D
:403200001B681A6AB3F8B030C3EBC303D358002BF5DA3E22114B1A6041F61E7204331A60A3F584730622C3F8182521F07F41C3F81C15D3F81C35084B1A68116AB2F8B03053
:40324000C3EBC3030B4400225A60054BD3F81C35002BFADA704700BFD04A02080401264000002640F8B5274B1B6893F83130052B04D840F2C311244800F056FA214F3A687B
:40328000166AB2F8B03003EB83031E4452684FF26003D458A4B200F057FA05463B681968D3F890208A58013C032C27D8032A0CD1164A127812F0FF0F07D10822B26019683D
:4032C000D3F890208A58032AF9D01968D3F884208B588858C0F307221B0E581C02FB00000B4B03FB00F00B4B1B680B4AA2FB03239B09B0FBF3F08230FFF77EFF284600F068
:403300001BFAF8BDD04A0208A42F08100B00001640420F0090420208D34D62104378FF2B23D110B500F010FA0446104B1B6893F83130042B04D840F2C3110D4800F0F4F9A5
:403340000A4B1A68136AB2F8B02003EB8203DB685A68136843F001031360136813F0010FFBD1204600F0E8F910BD7047D04A0208A42F08102DE9F04707468846554B1B6833
:4033800093F83130012B04D840F2C311524800F0CBF9504B1B681C6AB3F8B0201444D3F8B420161993F85030002B79D04B4B1B7813F0FF0F02D04FF0000901E04FF0010983
:4033C000B9F1000F38D0434B1B6893F83130052B04D840F2C311404800F0A6F93D4B1A68116AB2F8B03003EB83030B44D2F8B420D358002B22DB002000F09AF9384B984223
:403400001ED00023374A12690121184600F088F918B1354D17E0013500E00025002000F087F92F4B984202D0304B9D42F3D92F4B9D4207D92C4D06E0002504E02A4D02E03B
:40344000294D00E00025002D41D100F07DF98246274BD3F81C35002B10DA224A0121204600F056F960B94046FFF7C6FE57B13368002BFCDB00F050F9054604E01A4D02E0DF
:40348000194D00E01B4DB9F1000F05D00121002000F056F90028F9D1504600F04DF916E000F052F980460F4A0121204600F030F938B947B13368002BFCDB00F02DF90546B9
:4034C00002E0094D00E00B4D404600F035F92846BDE8F087D04A0208A42F08100B00001601018800504A020805005200EF4902000000264001005000F0B47F4B1A685568DB
:403500004FF0B0535B7813F0FF0F04D04FF0B0535B78DBB200E02123212B55D1116AB2F8B030C3EBC303CC18CB58002BF6DAE36843F00103E360146AB2F8B030C3EBC3039D
:403540001C44E36813F0020F2DD0E3689EB21368D2F884105958090A090401F47F01D2F88870DB591B0A41EA03633343E3601168D2F884208B5823F47F4343F410638B5048
:403580005D4A13681C68D3F88810635823F47F4343F41063635013681A68D3F884105158D3F88830D358544B1A68116AB2F8B030C3EBC3030B4400215960116AB2F8B03096
:4035C000C3EBC3030B445B684B4B19680C68D1F894301C44494A136943F004031361012801D030BF07E020BF454B1B7803B120BF0122434B1A70236803F00303022BE9D006
:403600000A6AB1F8B030C3EBC303D018D358002BF6DA4FF0B0535B7813F0FF0F04D04FF0B0535B78DBB200E02123212B30D1C36813F0020F1FD00C68D1F88410635823F42D
:403640007F42C3681B0C1B0203F47F4313436350294B19680C68D1F88800235823F47F420D6AB1F8B030C3EBC3032B44DB681B0E42EA03232350204B1A68136AB2F8B02053
:40368000C2EBC2021344DA6822F00102DA6026E0D5F80C311BBB1B490E681B4BD3F818451A4A106841F61E770F600621C3F818153E2111604422C3F81C25134BD3F81C3591
:4036C000002BFADA4FF0AA33C5F80C310D4B1E60A3F58473C3F8184503F582731860064B1A68116AB2F8B030C3EBC3030B4400225A60F0BC704700BFD04A020800ED00E049
:40370000684A02080801264000002640040126405FF800F0550A08105FF800F0CD2908105FF800F0350E08105FF800F0D12A08105FF800F0610C08105FF800F0B32B081075
:403740005FF800F0D90B08105FF800F0AB2B0810000000000000000000000000000000000000000000000000000000000000000000000000000000000000000000000000D1
:403780000000000000000000000000000000000000000000000000000000000000000000000000000000000000000000000000000000000000000000000000000000000009
:4037C00000000000000000000000000000000000000000000000000000000000000000000000000000000000000000000000000000000000000000000000000000000000C9
:0200000490303A
:020000005E2B75
:0200000490501A
:0C0000000005E20621002101E2267F2B12
:00000001FF